:100000000C942A000C943C000C943C000C943C0092
:100010000C9488040C943C000C943C000C943A041E
:100020000C9461040C943C000C9413040C943C005C
:100030000C943C000C943C000C943C000C943C0050
:100040000C943C000C943C000C943C000C943C0040
:100050000C943C0011241FBECFE5D8E0DEBFCDBF1D
:1000600020E0A0E6B0E001C01D92AD39B207E1F793
:100070000E9459000C94D9040C94000061E081E0C6
:100080000E94740081E00E94040128EE33E003C066
:100090002150310929F088EE93E00197F1F7F8CF6C
:1000A000089561E082E00E94740082E00E940401F1
:1000B00008950E94620121E030E050E040E068EEE7
:1000C00073E081E590E00E947A0130E020E050E0AA
:1000D00040E068EE73E08EE390E00E947A010E94B7
:1000E000660290E080E00895803208F08BC0282FEF
:1000F00026952695269591E4920F8770223009F473
:1001000045C0943408F060C09134A9F0923489F469
:1001100061112FC047B321E030E0F90102C0EE0FBA
:10012000FF1F8A95E2F7CF018095842387BB862F36
:10013000089581E0089561110FC04AB321E030E0D5
:10014000F90102C0EE0FFF1F8A95E2F7CF018095FB
:1001500084238ABB862F08959AB321E030E002C041
:10016000220F331F8A95E2F7892F822B8ABB80E00A
:10017000089597B321E030E002C0220F331F8A9523
:10018000E2F7892F822B87BB80E0089561110FC0B1
:1001900044B321E030E0F90102C0EE0FFF1F8A9561
:1001A000E2F7CF018095842384BB862F089594B312
:1001B00021E030E002C0220F331F8A95E2F7892F39
:1001C000822B84BB80E0089561110FC041B321E010
:1001D00030E0B90102C0660F771F8A95E2F7CB01C4
:1001E0008095842381BB81E0089591B321E030E0C4
:1001F00002C0220F331F8A95E2F7892F822B81BB21
:1002000081E0089580E00895803208F045C0282FED
:1002100026952695269591E4920F8770223011F14C
:10022000943468F5913489F0923469F498B321E0FC
:1002300030E002C0220F331F8A95E2F7892F822710
:1002400088BB80E0089581E008959BB321E030E011
:1002500002C0220F331F8A95E2F7892F82278BBBBA
:1002600080E0089595B321E030E002C0220F331FF3
:100270008A95E2F7892F822785BB80E0089592B3A3
:1002800021E030E002C0220F331F8A95E2F7892F68
:10029000822782BB80E0089581E00895809160000C
:1002A00090916100A0916200B09163000196A11D40
:1002B000B11D8093600090936100A0936200B093A1
:1002C00063000895CF93DF9300D000D0CDB7DEB7A1
:1002D00019821A8282E08B8381E08C83CE010196A1
:1002E0000E94380380E00F900F900F900F90DF91E5
:1002F000CF9108950F931F93CF93DF93E82FF92F9A
:10030000062F172F642F752F809164009091650040
:10031000A0916600B091670084309105A105B105F8
:1003200060F5309781F1AC01440F551F480F591FFC
:10033000440F551F440F551F48595F4FEA01FB8773
:10034000EA876230710508F5688329830115110574
:10035000F1F0A80170E060E04A835B836C837D83E9
:100360000196A11DB11D8093640090936500A09338
:100370006600B093670080E001C081E0DF91CF911B
:100380001F910F91089582E0F9CF84E0F7CF86E0C6
:10039000F5CF8F929F92AF92BF92CF92DF92EF9262
:1003A000FF92282F392FC0906400D0906500E09014
:1003B0006600F090670083E0C114D104E104F10409
:1003C00009F47BC080E0812C912C54011DC08092E7
:1003D000640090926500A0926600B092670080E091
:1003E0006CC08F5F882E912CB12CA12CC090640022
:1003F000D0906500E0906600F09067008C149D043A
:10040000AE04BF0408F058C0482F50E0FA01EE0FC8
:10041000FF1FE40FF51FEE0FFF1FEE0FFF1FE85940
:10042000FF4F4285538542175307D9F691E0C91A09
:10043000D108E108F108C814D904EA04FB0439F230
:10044000C0926400D0926500E0926600F09267006E
:10045000482F50E070E060E04C155D056E057F05AB
:1004600008F0BFCF482F50E0DA01AA0FBB1FA40F3E
:10047000B51FAA0FBB1FAA0FBB1FA859BF4F4F5FC5
:100480005F4FFA01EE0FFF1FE40FF51FEE0FFF1F86
:10049000EE0FFF1FE859FF4F9CE001900D929A95D7
:1004A000E1F78F5F482F50E070E060E04C155D058C
:1004B0006E057F05B8F295CF80E0FF90EF90DF905A
:1004C000CF90BF90AF909F908F900895CF93DF9380
:1004D000CDB7DEB760970FB6F894DEBF0FBECDBFC5
:1004E00081E0B12C0DC0C0906400D0906500E09018
:1004F0006600F0906700C114D104E104F10489F4AE
:10050000813089F38091640090916500A09166002C
:10051000B0916700892B8A2B8B2B09F052C08B2D51
:10052000EFCF6FEF6C0D062F000F110B060F111D93
:1005300067FD1A95000F111F000F111F045A1F4F5E
:1005400030E032C021500C97321714F5DC011D96B3
:100550005C911D9711964C915417A0F74CE0FC014B
:100560003C96DE01119601900D924A95E1F74CE020
:10057000FC01DC011C9601900D924A95E1F74CE0DC
:10058000FE013196DC0101900D924A95E1F7DACF38
:100590003F5F832F032E000C990BAA0BBB0B8C150E
:1005A0009D05AE05BF0528F4361794F7C801262F20
:1005B000CDCF4EE451E070E060E08B2D0E948603C9
:1005C000A1CF4090600050906100609062007090F8
:1005D000630008E610E0C12CD12C760114C0BFEFF7
:1005E000CB1ADB0AEB0AFB0A045F1F4F8091640001
:1005F00090916500A0916600B0916700C816D90679
:10060000EA06FB0698F5F801268137814085518579
:100610002F5F3F4F4F4F5F4F82819381A481B58100
:10062000BC01CD010E94AF046D877E878F87988BB8
:10063000461657066806790691F60284F385E02D82
:100640000995F80186819781A085B1850196A11D44
:10065000B11D86839783A087B1878081813009F09F
:10066000BECF828593850E94C901B9CF8B2D48CF1B
:10067000E82FF92F309709F43FC09081292F30E0FF
:10068000D901AC56BF4F8C918130F1F09330B0F569
:1006900082818330A8F543814230A0F551815830E2
:1006A00098F5D901AC56BF4F61E06C93D901A956BA
:1006B000BF4F8C9326563F4FD9014C93813029F080
:1006C00083818130A1F080E00895913041F0923033
:1006D00051F09111F9CF83B7582B53BFF1CF8EB59D
:1006E000582B5EBDEDCF85B5582B55BDE9CF8FB7E3
:1006F00080688FBF80E0089580E0089581E00895CC
:1007000081E0089581E0089581E00895982F262FD3
:10071000372F642F752F811184C083B7886083BF02
:1007200040919700413009F45FC041112DC083B75B
:10073000826083BF80919A00811114C02115310518
:1007400009F461C050E040E061E098B7926098BF62
:100750006CBF08B601FEFDCF4F5F5F4F2417350712
:10076000A1F70895813011F0842F089588B7826031
:1007700088BF81E08CBF89B7826089BF7093930086
:1007800060939200842F0895423011F0892F0895CC
:1007900083B7836083BF80919A00811113C02115B4
:1007A000310589F150E040E06DE798B7926098BF5D
:1007B0006CBF08B601FEFDCF4F5F5F4F24173507B2
:1007C000A1F70895813011F0892F089588B78260CC
:1007D00088BF8DE78CBF89B7826089BF7093930013
:1007E00060939200892F089580919A00811108C02A
:1007F00098B7926098BF2CBF08B601FEFDCF089550
:10080000813011F0892F089588B7826088BF2CBF8E
:1008100089B7826089BF7093930060939200892F9B
:10082000089581E008951F920F920FB60F92112440
:100830002F933F934F935F936F937F938F939F93E8
:10084000AF93BF93EF93FF93E0919200F0919300E9
:100850000995FF91EF91BF91AF919F918F917F91FA
:100860006F915F914F913F912F910F900FBE0F901D
:100870001F9018951F920F920FB60F9211242F936D
:100880003F934F935F936F937F938F939F93AF9318
:10089000BF93EF93FF93E0919000F0919100099541
:1008A000FF91EF91BF91AF919F918F917F916F9148
:1008B0005F914F913F912F910F900FBE0F901F901E
:1008C00018951F920F920FB60F9211242F933F93FA
:1008D0004F935F936F937F938F939F93AF93BF9348
:1008E000EF93FF93E0918E00F0918F000995FF91B7
:1008F000EF91BF91AF919F918F917F916F915F9198
:100900004F913F912F910F900FBE0F901F90189510
:100910001F920F920FB60F9211242F933F934F9374
:100920005F936F937F938F939F93AF93BF93EF9357
:10093000FF93E0918C00F0918D000995FF91EF916C
:10094000BF91AF919F918F917F916F915F914F91E7
:100950003F912F910F900FBE0F901F901895DB01C4
:100960008F939F930E94BF04BF91AF91A29F800D70
:10097000911DA39F900DB29F900D112408950E9488
:10098000CA04A59F900DB49F900DA49F800D911D4A
:1009900011240895A29FB001B39FC001A39F700DC1
:1009A000811D1124911DB29F700D811D1124911D77
:0609B0000895F894FFCF4A
:00000001FF
